:020000040000FA
:020000002329B2
:08000800831203130B11831294
:10001000031383308100A50B1028A00A7D30A500B2
:1000200009000000000000000000000000000000C7
:10003000000000000000000000001E2808000A3038
:10004000A3002008A400A1010A30A402031C2C284C
:10005000A10AA30B24282C2824080A3EA200302839
:1000600008001F203A207020352808003A20702010
:10007000392808001120831203132108003C0319BA
:10008000A62800002108013C0319AC280000210823
:10009000023C0319B22800002108033C0319B828C8
:1000A00000002108043C0319BE2800002108053C7B
:1000B0000319C42800002108063C0319CA280000BF
:1000C0002108073C0319D02800002108083C031927
:1000D000D62800002108093C0319DC280000E2288A
:1000E0001120831203132208003C0319A9280000E1
:1000F0002208013C0319AF2800002208023C031922
:10010000B52800002208033C0319BB280000220880
:10011000043C0319C12800002208053C0319C72824
:1001200000002208063C0319CD2800002208073CE5
:100130000319D32800002208083C0319D92800001D
:100140002208093C0319DF280000E228EE3086006F
:10015000E228FE308600E22828308600E228383087
:100160008600E228CD308600E228DD308600E228D5
:100170006D308600E2287D308600E2282B30860034
:10018000E2283B308600E22867308600E22877309C
:100190008600E228E3308600E228F3308600E22879
:1001A0002C308600E2283C308600E228EF308600C2
:1001B000E228FF308600E2282F308600E2283F3018
:1001C0008600E2280800851831283628E72808002C
:1001D0000519EB28F12808002008643C0319F128D0
:1001E000F328A001F328080083160313853081004B
:1001F000222983120313A0308B00222983160313B4
:100200000630850022298316031300308600222938
:1002100083120313850107309F00222983120313E1
:10022000EE3086001120FE3086002229831203134F
:10023000833081007D30A5002229A001A101A20107
:10024000A30122290800F420F920FE20032108211F
:0E0250000E2116211D21E320E820EC202B2991
:02400E00613F10
:00000001FF
