:020000040000FA
:100000003928FF30A000A00B03280000080083124D
:100010000313A0308B0008008316031326309800CA
:10002000080083120313903098000800831603130E
:100030008130990008008316031330308C000800CB
:100040008312031300308C0008008316031306305C
:10005000860008008316031302308500080083120F
:10006000031349309F0008008316031380309F005C
:100070000800072025200C20112016201B202020FE
:100080002A202F20342001200000831203131F1583
:100090001F1948280000831203131E088316031338
:1000A000981C502800008312031399008316031331
:1000B0001E0883160313981C5B2800008312031389
:0600C00099000120432815
:02400E00723FFF
:00000001FF
