:020000040000FA
:02000000AD2829
:08000800831203130B11831294
:10001000031383308100A20B1128662012207D304B
:10002000A2000900831203132008003C031947288B
:1000300000002008013C03194A2800002008023C67
:1000400003194D2800002008033C03195028000024
:100050002008043C0319532800002008053C03191C
:10006000562800002008063C0319592800002008E3
:10007000073C03195C2800002008083C03195F288E
:1000800000002008093C0319622800000800FE3027
:1000900086006528383086006528DD3086006528B2
:1000A0007D30860065283B308600652877308600E5
:1000B0006528F330860065283C3086006528FF30CF
:1000C000860065283F308600652808008518692865
:1000D0006B28A00A6C28A00308008312031385185C
:1000E0007228772820080A3C03197C2884282008D5
:1000F000FF3C0319802884280030A0004720842872
:100100000930A0006220842808008316031385307C
:100110008100080083120313A0308B0008008316AF
:100120000313023085000800831603130030860095
:10013000080083120313850107309F000800831213
:100140000313FE30860008008312031383308100FE
:100150007D30A2000030A000080085208A208F207A
:0C016000942099209F20A4206D20B4283A
:02400E00613F10
:00000001FF
