:020000040000FA
:020000004A288C
:08000800831203130B11831294
:10001000031383308100A50B12287D30A500132027
:10002000172025200900061A1F281B28080006187B
:1000300022281D280800A00C0900A10C090080300E
:10004000A00009000830A100090020082104860052
:100050000800831603130530810049288312031317
:10006000A0308B00492883160313003086004928EE
:10007000831203130030860049288030A000083026
:10008000A100492883120313833081007D30A5002D
:100090004928080029202E20332038203D204220E6
:0200A0005028E6
:02400E00613F10
:00000001FF
