:020000040000FA
:100000009628831203132008003C03193F280000A0
:100010002008013C0319432800002008023C031972
:10002000472800002008033C03194B280000200843
:10003000043C03194F2800002008053C03195328ED
:1000400000002008063C0319572800002008073C40
:1000500003195B2800002008083C03195F280000F2
:100060002008093C031963280000FF30831603139E
:10007000981C362800008312031399009F28FE3035
:100080008600200836283830860020083628DD30E3
:100090008600200836287D308600200836283B3030
:1000A0008600200836287730860020083628F3306E
:1000B0008600200836283C30860020083628FF308D
:1000C0008600200836283F308600200836280800A1
:1000D00083120313A0308B0008008316031326300D
:1000E00098000800831203139030980008008316CC
:1000F00003138130990008008316031330308C00FD
:1001000008008312031300308C00080083160313C9
:1001100006308600080083160313003086000800AE
:1001200083120313FE308600A00108008B2090206C
:10013000682086206D20722077207C208120831209
:1001400003138C1E9F280000831203131A08A000BB
:02015000012884
:02400E00623F0F
:00000001FF
